{
  "_format": "hh-sol-artifact-1",
  "contractName": "Crowdsale",
  "sourceName": "contracts/Crowdsale.sol",
  "abi": [
    {
      "inputs": [
        {
          "internalType": "contract AssignmentERC20",
          "name": "token",
          "type": "address"
        },
        {
          "internalType": "uint256",
          "name": "unitPrice",
          "type": "uint256"
        },
        {
          "internalType": "address",
          "name": "owner",
          "type": "address"
        }
      ],
      "stateMutability": "nonpayable",
      "type": "constructor"
    },
    {
      "anonymous": false,
      "inputs": [
        {
          "indexed": false,
          "internalType": "address",
          "name": "buyer",
          "type": "address"
        },
        {
          "indexed": false,
          "internalType": "uint256",
          "name": "amount",
          "type": "uint256"
        }
      ],
      "name": "Buy",
      "type": "event"
    },
    {
      "anonymous": false,
      "inputs": [
        {
          "indexed": false,
          "internalType": "address",
          "name": "to",
          "type": "address"
        },
        {
          "indexed": false,
          "internalType": "uint256",
          "name": "amount",
          "type": "uint256"
        }
      ],
      "name": "Transfer",
      "type": "event"
    },
    {
      "anonymous": false,
      "inputs": [
        {
          "indexed": false,
          "internalType": "uint256",
          "name": "unitprice",
          "type": "uint256"
        }
      ],
      "name": "UnitPrice",
      "type": "event"
    },
    {
      "inputs": [
        {
          "internalType": "uint256",
          "name": "unitPrice",
          "type": "uint256"
        }
      ],
      "name": "adjustUnitPrice",
      "outputs": [],
      "stateMutability": "nonpayable",
      "type": "function"
    },
    {
      "inputs": [
        {
          "internalType": "uint256",
          "name": "amount",
          "type": "uint256"
        }
      ],
      "name": "buy",
      "outputs": [],
      "stateMutability": "payable",
      "type": "function"
    },
    {
      "inputs": [],
      "name": "getEthBalance",
      "outputs": [
        {
          "internalType": "uint256",
          "name": "ethBalance",
          "type": "uint256"
        }
      ],
      "stateMutability": "view",
      "type": "function"
    },
    {
      "inputs": [],
      "name": "getUnitPrice",
      "outputs": [
        {
          "internalType": "uint256",
          "name": "unitPrice",
          "type": "uint256"
        }
      ],
      "stateMutability": "view",
      "type": "function"
    },
    {
      "inputs": [
        {
          "internalType": "address",
          "name": "to",
          "type": "address"
        },
        {
          "internalType": "uint256",
          "name": "amount",
          "type": "uint256"
        }
      ],
      "name": "transferEthOut",
      "outputs": [],
      "stateMutability": "payable",
      "type": "function"
    }
  ],
  "bytecode": "0x608060405234801561001057600080fd5b5060405161097e38038061097e8339818101604052810190610032919061019a565b82600160006101000a81548173ffffffffffffffffffffffffffffffffffffffff021916908373ffffffffffffffffffffffffffffffffffffffff1602179055508160008190555080600260006101000a81548173ffffffffffffffffffffffffffffffffffffffff021916908373ffffffffffffffffffffffffffffffffffffffff1602179055505050506101ed565b600080fd5b600073ffffffffffffffffffffffffffffffffffffffff82169050919050565b60006100f3826100c8565b9050919050565b6000610105826100e8565b9050919050565b610115816100fa565b811461012057600080fd5b50565b6000815190506101328161010c565b92915050565b6000819050919050565b61014b81610138565b811461015657600080fd5b50565b60008151905061016881610142565b92915050565b610177816100e8565b811461018257600080fd5b50565b6000815190506101948161016e565b92915050565b6000806000606084860312156101b3576101b26100c3565b5b60006101c186828701610123565b93505060206101d286828701610159565b92505060406101e386828701610185565b9150509250925092565b610782806101fc6000396000f3fe60806040526004361061004a5760003560e01c8063012a33aa1461004f57806370ed0ada1461007a578063a3cac2bb146100a5578063d96a094a146100c1578063e66f1da5146100dd575b600080fd5b34801561005b57600080fd5b50610064610106565b6040516100719190610426565b60405180910390f35b34801561008657600080fd5b5061008f61010f565b60405161009c9190610426565b60405180910390f35b6100bf60048036038101906100ba91906104d0565b610117565b005b6100db60048036038101906100d69190610510565b6101f8565b005b3480156100e957600080fd5b5061010460048036038101906100ff9190610510565b61033a565b005b60008054905090565b600047905090565b600260009054906101000a900473ffffffffffffffffffffffffffffffffffffffff1673ffffffffffffffffffffffffffffffffffffffff163373ffffffffffffffffffffffffffffffffffffffff16146101a7576040517f08c379a000000000000000000000000000000000000000000000000000000000815260040161019e9061059a565b60405180910390fd5b60008290508073ffffffffffffffffffffffffffffffffffffffff166108fc839081150290604051600060405180830381858888f193505050501580156101f2573d6000803e3d6000fd5b50505050565b8060005461020691906105e9565b341015610248576040517f08c379a000000000000000000000000000000000000000000000000000000000815260040161023f9061068f565b60405180910390fd5b6000339050600160009054906101000a900473ffffffffffffffffffffffffffffffffffffffff1673ffffffffffffffffffffffffffffffffffffffff166340c10f1982846040518363ffffffff1660e01b81526004016102aa9291906106be565b602060405180830381600087803b1580156102c457600080fd5b505af11580156102d8573d6000803e3d6000fd5b505050506040513d601f19601f820116820180604052508101906102fc919061071f565b507fe3d4187f6ca4248660cc0ac8b8056515bac4a8132be2eca31d6d0cc170722a7e818360405161032e9291906106be565b60405180910390a15050565b600260009054906101000a900473ffffffffffffffffffffffffffffffffffffffff1673ffffffffffffffffffffffffffffffffffffffff163373ffffffffffffffffffffffffffffffffffffffff16146103ca576040517f08c379a00000000000000000000000000000000000000000000000000000000081526004016103c19061059a565b60405180910390fd5b806000819055507f3ff56b26d57266623c08d99c14fe5f5537b9d1bdfdfee34402fb4c07061d154a6000546040516104029190610426565b60405180910390a150565b6000819050919050565b6104208161040d565b82525050565b600060208201905061043b6000830184610417565b92915050565b600080fd5b600073ffffffffffffffffffffffffffffffffffffffff82169050919050565b600061047182610446565b9050919050565b61048181610466565b811461048c57600080fd5b50565b60008135905061049e81610478565b92915050565b6104ad8161040d565b81146104b857600080fd5b50565b6000813590506104ca816104a4565b92915050565b600080604083850312156104e7576104e6610441565b5b60006104f58582860161048f565b9250506020610506858286016104bb565b9150509250929050565b60006020828403121561052657610525610441565b5b6000610534848285016104bb565b91505092915050565b600082825260208201905092915050565b7f4e6f6e206f776e6572206f6620636f6e74726163740000000000000000000000600082015250565b600061058460158361053d565b915061058f8261054e565b602082019050919050565b600060208201905081810360008301526105b381610577565b9050919050565b7f4e487b7100000000000000000000000000000000000000000000000000000000600052601160045260246000fd5b60006105f48261040d565b91506105ff8361040d565b9250817fffffffffffffffffffffffffffffffffffffffffffffffffffffffffffffffff0483118215151615610638576106376105ba565b5b828202905092915050565b7f496e73756666696369656e74207061796d656e74000000000000000000000000600082015250565b600061067960148361053d565b915061068482610643565b602082019050919050565b600060208201905081810360008301526106a88161066c565b9050919050565b6106b881610466565b82525050565b60006040820190506106d360008301856106af565b6106e06020830184610417565b9392505050565b60008115159050919050565b6106fc816106e7565b811461070757600080fd5b50565b600081519050610719816106f3565b92915050565b60006020828403121561073557610734610441565b5b60006107438482850161070a565b9150509291505056fea2646970667358221220e9ad0e0496f0b71d868f1cadcca79a0ba4890130deec2196777245f28dc4274b64736f6c63430008080033",
  "linkReferences": {},
  "deployedLinkReferences": {}
}